{
  "_format": "hh-sol-artifact-1",
  "contractName": "MusicMarketplace",
  "sourceName": "solidity/contracts/MusicMarketplace.sol",
  "abi": [
    {
      "anonymous": false,
      "inputs": [
        {
          "indexed": true,
          "internalType": "uint256",
          "name": "id",
          "type": "uint256"
        },
        {
          "indexed": false,
          "internalType": "string",
          "name": "title",
          "type": "string"
        },
        {
          "indexed": false,
          "internalType": "uint256",
          "name": "price",
          "type": "uint256"
        }
      ],
      "name": "SongListed",
      "type": "event"
    },
    {
      "anonymous": false,
      "inputs": [
        {
          "indexed": true,
          "internalType": "uint256",
          "name": "id",
          "type": "uint256"
        },
        {
          "indexed": false,
          "internalType": "address",
          "name": "buyer",
          "type": "address"
        }
      ],
      "name": "SongSold",
      "type": "event"
    },
    {
      "inputs": [
        {
          "internalType": "uint256",
          "name": "_id",
          "type": "uint256"
        }
      ],
      "name": "buySong",
      "outputs": [],
      "stateMutability": "payable",
      "type": "function"
    },
    {
      "inputs": [],
      "name": "getBoughtSongs",
      "outputs": [
        {
          "components": [
            {
              "internalType": "uint256",
              "name": "id",
              "type": "uint256"
            },
            {
              "internalType": "uint256",
              "name": "price",
              "type": "uint256"
            },
            {
              "internalType": "address",
              "name": "author",
              "type": "address"
            },
            {
              "internalType": "address[]",
              "name": "buyers",
              "type": "address[]"
            },
            {
              "internalType": "string",
              "name": "title",
              "type": "string"
            }
          ],
          "internalType": "struct MusicMarketplace.Song[]",
          "name": "",
          "type": "tuple[]"
        }
      ],
      "stateMutability": "view",
      "type": "function"
    },
    {
      "inputs": [
        {
          "internalType": "uint256",
          "name": "_id",
          "type": "uint256"
        }
      ],
      "name": "getDownloadLink",
      "outputs": [
        {
          "internalType": "string",
          "name": "",
          "type": "string"
        }
      ],
      "stateMutability": "view",
      "type": "function"
    },
    {
      "inputs": [],
      "name": "getOwnedSongs",
      "outputs": [
        {
          "components": [
            {
              "internalType": "uint256",
              "name": "id",
              "type": "uint256"
            },
            {
              "internalType": "uint256",
              "name": "price",
              "type": "uint256"
            },
            {
              "internalType": "address",
              "name": "author",
              "type": "address"
            },
            {
              "internalType": "address[]",
              "name": "buyers",
              "type": "address[]"
            },
            {
              "internalType": "string",
              "name": "title",
              "type": "string"
            }
          ],
          "internalType": "struct MusicMarketplace.Song[]",
          "name": "",
          "type": "tuple[]"
        }
      ],
      "stateMutability": "view",
      "type": "function"
    },
    {
      "inputs": [],
      "name": "getSongs",
      "outputs": [
        {
          "components": [
            {
              "internalType": "uint256",
              "name": "id",
              "type": "uint256"
            },
            {
              "internalType": "uint256",
              "name": "price",
              "type": "uint256"
            },
            {
              "internalType": "address",
              "name": "author",
              "type": "address"
            },
            {
              "internalType": "address[]",
              "name": "buyers",
              "type": "address[]"
            },
            {
              "internalType": "string",
              "name": "title",
              "type": "string"
            }
          ],
          "internalType": "struct MusicMarketplace.Song[]",
          "name": "",
          "type": "tuple[]"
        }
      ],
      "stateMutability": "view",
      "type": "function"
    },
    {
      "inputs": [
        {
          "internalType": "string",
          "name": "_title",
          "type": "string"
        },
        {
          "internalType": "uint256",
          "name": "_price",
          "type": "uint256"
        },
        {
          "internalType": "string",
          "name": "_arweaveURI",
          "type": "string"
        }
      ],
      "name": "listSong",
      "outputs": [],
      "stateMutability": "nonpayable",
      "type": "function"
    }
  ],
  "bytecode": "0x608060405234801561001057600080fd5b506124eb806100206000396000f3fe6080604052600436106100555760003560e01c8063086021b31461005a5780631ad234f9146100855780634ee1f16f146100ae5780635565f660146100d9578063606a017514610104578063e850a0cc14610120575b600080fd5b34801561006657600080fd5b5061006f61015d565b60405161007c9190611c6e565b60405180910390f35b34801561009157600080fd5b506100ac60048036038101906100a79190611e05565b61065e565b005b3480156100ba57600080fd5b506100c36108dd565b6040516100d09190611c6e565b60405180910390f35b3480156100e557600080fd5b506100ee610c5f565b6040516100fb9190611c6e565b60405180910390f35b61011e60048036038101906101199190611e90565b610e48565b005b34801561012c57600080fd5b5061014760048036038101906101429190611e90565b61139c565b6040516101549190611f07565b60405180910390f35b60606000805b60008054905081101561029f57600080828154811061018557610184611f29565b5b906000526020600020906005020160030180549050111561028c5760005b600082815481106101b7576101b6611f29565b5b90600052602060002090600502016003018054905081101561028a573373ffffffffffffffffffffffffffffffffffffffff16600083815481106101fe576101fd611f29565b5b9060005260206000209060050201600301828154811061022157610220611f29565b5b9060005260206000200160009054906101000a900473ffffffffffffffffffffffffffffffffffffffff1673ffffffffffffffffffffffffffffffffffffffff16141561027757828061027390611f9b565b9350505b808061028290611fcc565b9150506101a3565b505b808061029790611fcc565b915050610163565b5060008167ffffffffffffffff16116102ed576040517f08c379a00000000000000000000000000000000000000000000000000000000081526004016102e490612061565b60405180910390fd5b60008167ffffffffffffffff1667ffffffffffffffff81111561031357610312611cae565b5b60405190808252806020026020018201604052801561034c57816020015b61033961181b565b8152602001906001900390816103315790505b50905060005b60008054905081101561065557600080828154811061037457610373611f29565b5b90600052602060002090600502016003018054905011156106425760005b600082815481106103a6576103a5611f29565b5b906000526020600020906005020160030180549050811015610640573373ffffffffffffffffffffffffffffffffffffffff16600083815481106103ed576103ec611f29565b5b906000526020600020906005020160030182815481106104105761040f611f29565b5b9060005260206000200160009054906101000a900473ffffffffffffffffffffffffffffffffffffffff1673ffffffffffffffffffffffffffffffffffffffff16141561062d576000828154811061046b5761046a611f29565b5b90600052602060002090600502016040518060a001604052908160008201548152602001600182015481526020016002820160009054906101000a900473ffffffffffffffffffffffffffffffffffffffff1673ffffffffffffffffffffffffffffffffffffffff1673ffffffffffffffffffffffffffffffffffffffff1681526020016003820180548060200260200160405190810160405280929190818152602001828054801561057357602002820191906000526020600020905b8160009054906101000a900473ffffffffffffffffffffffffffffffffffffffff1673ffffffffffffffffffffffffffffffffffffffff1681526020019060010190808311610529575b5050505050815260200160048201805461058c906120b0565b80601f01602080910402602001604051908101604052809291908181526020018280546105b8906120b0565b80156106055780601f106105da57610100808354040283529160200191610605565b820191906000526020600020905b8154815290600101906020018083116105e857829003601f168201915b50505050508152505083838151811061062157610620611f29565b5b60200260200101819052505b808061063890611fcc565b915050610392565b505b808061064d90611fcc565b915050610352565b50809250505090565b61066661181b565b6000805490508160000181815250508281602001818152505033816040019073ffffffffffffffffffffffffffffffffffffffff16908173ffffffffffffffffffffffffffffffffffffffff16815250508381608001819052506000600167ffffffffffffffff8111156106dd576106dc611cae565b5b60405190808252806020026020018201604052801561070b5781602001602082028036833780820191505090505b509050338160008151811061072357610722611f29565b5b602002602001019073ffffffffffffffffffffffffffffffffffffffff16908173ffffffffffffffffffffffffffffffffffffffff16815250508082606001819052506000829080600181540180825580915050600190039060005260206000209060050201600090919091909150600082015181600001556020820151816001015560408201518160020160006101000a81548173ffffffffffffffffffffffffffffffffffffffff021916908373ffffffffffffffffffffffffffffffffffffffff1602179055506060820151816003019080519060200190610809929190611860565b5060808201518160040190805190602001906108269291906118ea565b50505061086c6040518060400160405280601481526020017f4c697374696e672066696c65207769746820696400000000000000000000000081525083600001516116ba565b82600160008460000151815260200190815260200160002090805190602001906108979291906118ea565b5081600001517f8c88911ae6c425091c542315240c163442bec874fd23efb8be44c7c20d7c2e7486866040516108ce9291906120f1565b60405180910390a25050505050565b60606000805b60008054905081101561098b573373ffffffffffffffffffffffffffffffffffffffff166000828154811061091b5761091a611f29565b5b906000526020600020906005020160020160009054906101000a900473ffffffffffffffffffffffffffffffffffffffff1673ffffffffffffffffffffffffffffffffffffffff16141561097857818061097490611fcc565b9250505b808061098390611fcc565b9150506108e3565b5060008167ffffffffffffffff8111156109a8576109a7611cae565b5b6040519080825280602002602001820160405280156109e157816020015b6109ce61181b565b8152602001906001900390816109c65790505b50905060005b600080549050811015610c56573373ffffffffffffffffffffffffffffffffffffffff1660008281548110610a1f57610a1e611f29565b5b906000526020600020906005020160020160009054906101000a900473ffffffffffffffffffffffffffffffffffffffff1673ffffffffffffffffffffffffffffffffffffffff161415610c435760008181548110610a8157610a80611f29565b5b90600052602060002090600502016040518060a001604052908160008201548152602001600182015481526020016002820160009054906101000a900473ffffffffffffffffffffffffffffffffffffffff1673ffffffffffffffffffffffffffffffffffffffff1673ffffffffffffffffffffffffffffffffffffffff16815260200160038201805480602002602001604051908101604052809291908181526020018280548015610b8957602002820191906000526020600020905b8160009054906101000a900473ffffffffffffffffffffffffffffffffffffffff1673ffffffffffffffffffffffffffffffffffffffff1681526020019060010190808311610b3f575b50505050508152602001600482018054610ba2906120b0565b80601f0160208091040260200160405190810160405280929190818152602001828054610bce906120b0565b8015610c1b5780601f10610bf057610100808354040283529160200191610c1b565b820191906000526020600020905b815481529060010190602001808311610bfe57829003601f168201915b505050505081525050828281518110610c3757610c36611f29565b5b60200260200101819052505b8080610c4e90611fcc565b9150506109e7565b50809250505090565b60606000805480602002602001604051908101604052809291908181526020016000905b82821015610e3f57838290600052602060002090600502016040518060a001604052908160008201548152602001600182015481526020016002820160009054906101000a900473ffffffffffffffffffffffffffffffffffffffff1673ffffffffffffffffffffffffffffffffffffffff1673ffffffffffffffffffffffffffffffffffffffff16815260200160038201805480602002602001604051908101604052809291908181526020018280548015610d9557602002820191906000526020600020905b8160009054906101000a900473ffffffffffffffffffffffffffffffffffffffff1673ffffffffffffffffffffffffffffffffffffffff1681526020019060010190808311610d4b575b50505050508152602001600482018054610dae906120b0565b80601f0160208091040260200160405190810160405280929190818152602001828054610dda906120b0565b8015610e275780601f10610dfc57610100808354040283529160200191610e27565b820191906000526020600020905b815481529060010190602001808311610e0a57829003601f168201915b50505050508152505081526020019060010190610c83565b50505050905090565b80806000805490501015610e91576040517f08c379a0000000000000000000000000000000000000000000000000000000008152600401610e889061216d565b60405180910390fd5b8160008181548110610ea657610ea5611f29565b5b906000526020600020906005020160020160009054906101000a900473ffffffffffffffffffffffffffffffffffffffff1673ffffffffffffffffffffffffffffffffffffffff163373ffffffffffffffffffffffffffffffffffffffff161415610f46576040517f08c379a0000000000000000000000000000000000000000000000000000000008152600401610f3d906121d9565b60405180910390fd5b826000808281548110610f5c57610f5b611f29565b5b90600052602060002090600502016003018054905011610fb1576040517f08c379a0000000000000000000000000000000000000000000000000000000008152600401610fa890612245565b60405180910390fd5b60006001905060005b60008381548110610fce57610fcd611f29565b5b906000526020600020906005020160030180549050811015611137573373ffffffffffffffffffffffffffffffffffffffff166000848154811061101557611014611f29565b5b9060005260206000209060050201600301828154811061103857611037611f29565b5b9060005260206000200160009054906101000a900473ffffffffffffffffffffffffffffffffffffffff1673ffffffffffffffffffffffffffffffffffffffff1614156111245761111f6040518060400160405280600d81526020017f466f756e642062757965723a2000000000000000000000000000000000000000815250600085815481106110cc576110cb611f29565b5b906000526020600020906005020160030183815481106110ef576110ee611f29565b5b9060005260206000200160009054906101000a900473ffffffffffffffffffffffffffffffffffffffff16611756565b600091505b808061112f90611fcc565b915050610fba565b5080611178576040517f08c379a000000000000000000000000000000000000000000000000000000000815260040161116f906122b1565b60405180910390fd5b6000858154811061118c5761118b611f29565b5b9060005260206000209060050201600101543410156111e0576040517f08c379a00000000000000000000000000000000000000000000000000000000081526004016111d79061231d565b60405180910390fd5b60008086815481106111f5576111f4611f29565b5b906000526020600020906005020160020160009054906101000a900473ffffffffffffffffffffffffffffffffffffffff16905060008173ffffffffffffffffffffffffffffffffffffffff163460405161124f9061236e565b60006040518083038185875af1925050503d806000811461128c576040519150601f19603f3d011682016040523d82523d6000602084013e611291565b606091505b50509050806112d5576040517f08c379a00000000000000000000000000000000000000000000000000000000081526004016112cc906123cf565b60405180910390fd5b600087815481106112e9576112e8611f29565b5b9060005260206000209060050201600301339080600181540180825580915050600190039060005260206000200160009091909190916101000a81548173ffffffffffffffffffffffffffffffffffffffff021916908373ffffffffffffffffffffffffffffffffffffffff160217905550867f97dc5250837a3699c0e8dcfdf7abadc39e453fd7a7a27039c4d1a5819f0891f23360405161138b91906123fe565b60405180910390a250505050505050565b6060818060008054905010156113e7576040517f08c379a00000000000000000000000000000000000000000000000000000000081526004016113de9061216d565b60405180910390fd5b8260008082815481106113fd576113fc611f29565b5b90600052602060002090600502016003018054905011611452576040517f08c379a000000000000000000000000000000000000000000000000000000000815260040161144990612245565b60405180910390fd5b6000805b6000838154811061146a57611469611f29565b5b9060005260206000209060050201600301805490508110156115d3573373ffffffffffffffffffffffffffffffffffffffff16600084815481106114b1576114b0611f29565b5b906000526020600020906005020160030182815481106114d4576114d3611f29565b5b9060005260206000200160009054906101000a900473ffffffffffffffffffffffffffffffffffffffff1673ffffffffffffffffffffffffffffffffffffffff1614156115c0576115bb6040518060400160405280600d81526020017f466f756e642062757965723a20000000000000000000000000000000000000008152506000858154811061156857611567611f29565b5b9060005260206000209060050201600301838154811061158b5761158a611f29565b5b9060005260206000200160009054906101000a900473ffffffffffffffffffffffffffffffffffffffff16611756565b600191505b80806115cb90611fcc565b915050611456565b5080611614576040517f08c379a000000000000000000000000000000000000000000000000000000000815260040161160b90612465565b60405180910390fd5b600160008681526020019081526020016000208054611632906120b0565b80601f016020809104026020016040519081016040528092919081815260200182805461165e906120b0565b80156116ab5780601f10611680576101008083540402835291602001916116ab565b820191906000526020600020905b81548152906001019060200180831161168e57829003601f168201915b50505050509350505050919050565b61175282826040516024016116d09291906120f1565b6040516020818303038152906040527f9710a9d0000000000000000000000000000000000000000000000000000000007bffffffffffffffffffffffffffffffffffffffffffffffffffffffff19166020820180517bffffffffffffffffffffffffffffffffffffffffffffffffffffffff83818316178352505050506117f2565b5050565b6117ee828260405160240161176c929190612485565b6040516020818303038152906040527f319af333000000000000000000000000000000000000000000000000000000007bffffffffffffffffffffffffffffffffffffffffffffffffffffffff19166020820180517bffffffffffffffffffffffffffffffffffffffffffffffffffffffff83818316178352505050506117f2565b5050565b60008151905060006a636f6e736f6c652e6c6f679050602083016000808483855afa5050505050565b6040518060a001604052806000815260200160008152602001600073ffffffffffffffffffffffffffffffffffffffff16815260200160608152602001606081525090565b8280548282559060005260206000209081019282156118d9579160200282015b828111156118d85782518260006101000a81548173ffffffffffffffffffffffffffffffffffffffff021916908373ffffffffffffffffffffffffffffffffffffffff16021790555091602001919060010190611880565b5b5090506118e69190611970565b5090565b8280546118f6906120b0565b90600052602060002090601f016020900481019282611918576000855561195f565b82601f1061193157805160ff191683800117855561195f565b8280016001018555821561195f579182015b8281111561195e578251825591602001919060010190611943565b5b50905061196c9190611970565b5090565b5b80821115611989576000816000905550600101611971565b5090565b600081519050919050565b600082825260208201905092915050565b6000819050602082019050919050565b6000819050919050565b6119cc816119b9565b82525050565b600073ffffffffffffffffffffffffffffffffffffffff82169050919050565b60006119fd826119d2565b9050919050565b611a0d816119f2565b82525050565b600081519050919050565b600082825260208201905092915050565b6000819050602082019050919050565b6000611a4b8383611a04565b60208301905092915050565b6000602082019050919050565b6000611a6f82611a13565b611a798185611a1e565b9350611a8483611a2f565b8060005b83811015611ab5578151611a9c8882611a3f565b9750611aa783611a57565b925050600181019050611a88565b5085935050505092915050565b600081519050919050565b600082825260208201905092915050565b60005b83811015611afc578082015181840152602081019050611ae1565b83811115611b0b576000848401525b50505050565b6000601f19601f8301169050919050565b6000611b2d82611ac2565b611b378185611acd565b9350611b47818560208601611ade565b611b5081611b11565b840191505092915050565b600060a083016000830151611b7360008601826119c3565b506020830151611b8660208601826119c3565b506040830151611b996040860182611a04565b5060608301518482036060860152611bb18282611a64565b91505060808301518482036080860152611bcb8282611b22565b9150508091505092915050565b6000611be48383611b5b565b905092915050565b6000602082019050919050565b6000611c048261198d565b611c0e8185611998565b935083602082028501611c20856119a9565b8060005b85811015611c5c5784840389528151611c3d8582611bd8565b9450611c4883611bec565b925060208a01995050600181019050611c24565b50829750879550505050505092915050565b60006020820190508181036000830152611c888184611bf9565b905092915050565b6000604051905090565b600080fd5b600080fd5b600080fd5b600080fd5b7f4e487b7100000000000000000000000000000000000000000000000000000000600052604160045260246000fd5b611ce682611b11565b810181811067ffffffffffffffff82111715611d0557611d04611cae565b5b80604052505050565b6000611d18611c90565b9050611d248282611cdd565b919050565b600067ffffffffffffffff821115611d4457611d43611cae565b5b611d4d82611b11565b9050602081019050919050565b82818337600083830152505050565b6000611d7c611d7784611d29565b611d0e565b905082815260208101848484011115611d9857611d97611ca9565b5b611da3848285611d5a565b509392505050565b600082601f830112611dc057611dbf611ca4565b5b8135611dd0848260208601611d69565b91505092915050565b611de2816119b9565b8114611ded57600080fd5b50565b600081359050611dff81611dd9565b92915050565b600080600060608486031215611e1e57611e1d611c9a565b5b600084013567ffffffffffffffff811115611e3c57611e3b611c9f565b5b611e4886828701611dab565b9350506020611e5986828701611df0565b925050604084013567ffffffffffffffff811115611e7a57611e79611c9f565b5b611e8686828701611dab565b9150509250925092565b600060208284031215611ea657611ea5611c9a565b5b6000611eb484828501611df0565b91505092915050565b600082825260208201905092915050565b6000611ed982611ac2565b611ee38185611ebd565b9350611ef3818560208601611ade565b611efc81611b11565b840191505092915050565b60006020820190508181036000830152611f218184611ece565b905092915050565b7f4e487b7100000000000000000000000000000000000000000000000000000000600052603260045260246000fd5b7f4e487b7100000000000000000000000000000000000000000000000000000000600052601160045260246000fd5b600067ffffffffffffffff82169050919050565b6000611fa682611f87565b915067ffffffffffffffff821415611fc157611fc0611f58565b5b600182019050919050565b6000611fd7826119b9565b91507fffffffffffffffffffffffffffffffffffffffffffffffffffffffffffffffff82141561200a57612009611f58565b5b600182019050919050565b7f596f7520626f75676874206e6f20736f6e677300000000000000000000000000600082015250565b600061204b601383611ebd565b915061205682612015565b602082019050919050565b6000602082019050818103600083015261207a8161203e565b9050919050565b7f4e487b7100000000000000000000000000000000000000000000000000000000600052602260045260246000fd5b600060028204905060018216806120c857607f821691505b602082108114156120dc576120db612081565b5b50919050565b6120eb816119b9565b82525050565b6000604082019050818103600083015261210b8185611ece565b905061211a60208301846120e2565b9392505050565b7f54686520736f6e6720646f6573206e6f74206578697374000000000000000000600082015250565b6000612157601783611ebd565b915061216282612121565b602082019050919050565b600060208201905081810360008301526121868161214a565b9050919050565b7f596f75206172652074686520617574686f72206f66207468697320736f6e6700600082015250565b60006121c3601f83611ebd565b91506121ce8261218d565b602082019050919050565b600060208201905081810360008301526121f2816121b6565b9050919050565b7f54686520736f6e6720686173206e6f2062757965727300000000000000000000600082015250565b600061222f601683611ebd565b915061223a826121f9565b602082019050919050565b6000602082019050818103600083015261225e81612222565b9050919050565b7f596f7520616c7265616479206f776e207468697320736f6e6700000000000000600082015250565b600061229b601983611ebd565b91506122a682612265565b602082019050919050565b600060208201905081810360008301526122ca8161228e565b9050919050565b7f4e6f7420656e6f7567682066756e647300000000000000000000000000000000600082015250565b6000612307601083611ebd565b9150612312826122d1565b602082019050919050565b60006020820190508181036000830152612336816122fa565b9050919050565b600081905092915050565b50565b600061235860008361233d565b915061236382612348565b600082019050919050565b60006123798261234b565b9150819050919050565b7f4661696c656420746f2073656e64204574686572000000000000000000000000600082015250565b60006123b9601483611ebd565b91506123c482612383565b602082019050919050565b600060208201905081810360008301526123e8816123ac565b9050919050565b6123f8816119f2565b82525050565b600060208201905061241360008301846123ef565b92915050565b7f596f7520646f206e6f74206f776e207468697320736f6e672e00000000000000600082015250565b600061244f601983611ebd565b915061245a82612419565b602082019050919050565b6000602082019050818103600083015261247e81612442565b9050919050565b6000604082019050818103600083015261249f8185611ece565b90506124ae60208301846123ef565b939250505056fea2646970667358221220e9c62a1d39bda67018b1072223e50e66fcc5e8fbf1a532adad32daf5d8ba8ef264736f6c63430008090033",
  "linkReferences": {},
  "deployedLinkReferences": {}
}