{
  "_format": "hh-sol-artifact-1",
  "contractName": "MusicMarketplace",
  "sourceName": "solidity/contracts/MusicMarketplace.sol",
  "abi": [
    {
      "anonymous": false,
      "inputs": [
        {
          "indexed": true,
          "internalType": "uint256",
          "name": "id",
          "type": "uint256"
        },
        {
          "indexed": false,
          "internalType": "string",
          "name": "title",
          "type": "string"
        },
        {
          "indexed": false,
          "internalType": "uint256",
          "name": "price",
          "type": "uint256"
        }
      ],
      "name": "SongListed",
      "type": "event"
    },
    {
      "anonymous": false,
      "inputs": [
        {
          "indexed": true,
          "internalType": "uint256",
          "name": "id",
          "type": "uint256"
        },
        {
          "indexed": false,
          "internalType": "address",
          "name": "buyer",
          "type": "address"
        }
      ],
      "name": "SongSold",
      "type": "event"
    },
    {
      "inputs": [
        {
          "internalType": "uint256",
          "name": "_id",
          "type": "uint256"
        }
      ],
      "name": "buySong",
      "outputs": [],
      "stateMutability": "payable",
      "type": "function"
    },
    {
      "inputs": [],
      "name": "getBoughtSongs",
      "outputs": [
        {
          "components": [
            {
              "internalType": "uint256",
              "name": "id",
              "type": "uint256"
            },
            {
              "internalType": "uint256",
              "name": "price",
              "type": "uint256"
            },
            {
              "internalType": "address",
              "name": "author",
              "type": "address"
            },
            {
              "internalType": "address[]",
              "name": "buyers",
              "type": "address[]"
            },
            {
              "internalType": "string",
              "name": "title",
              "type": "string"
            }
          ],
          "internalType": "struct MusicMarketplace.Song[]",
          "name": "",
          "type": "tuple[]"
        }
      ],
      "stateMutability": "view",
      "type": "function"
    },
    {
      "inputs": [
        {
          "internalType": "uint256",
          "name": "_id",
          "type": "uint256"
        }
      ],
      "name": "getDownloadLink",
      "outputs": [
        {
          "internalType": "string",
          "name": "",
          "type": "string"
        }
      ],
      "stateMutability": "view",
      "type": "function"
    },
    {
      "inputs": [],
      "name": "getOwnedSongs",
      "outputs": [
        {
          "components": [
            {
              "internalType": "uint256",
              "name": "id",
              "type": "uint256"
            },
            {
              "internalType": "uint256",
              "name": "price",
              "type": "uint256"
            },
            {
              "internalType": "address",
              "name": "author",
              "type": "address"
            },
            {
              "internalType": "address[]",
              "name": "buyers",
              "type": "address[]"
            },
            {
              "internalType": "string",
              "name": "title",
              "type": "string"
            }
          ],
          "internalType": "struct MusicMarketplace.Song[]",
          "name": "",
          "type": "tuple[]"
        }
      ],
      "stateMutability": "view",
      "type": "function"
    },
    {
      "inputs": [],
      "name": "getSongs",
      "outputs": [
        {
          "components": [
            {
              "internalType": "uint256",
              "name": "id",
              "type": "uint256"
            },
            {
              "internalType": "uint256",
              "name": "price",
              "type": "uint256"
            },
            {
              "internalType": "address",
              "name": "author",
              "type": "address"
            },
            {
              "internalType": "address[]",
              "name": "buyers",
              "type": "address[]"
            },
            {
              "internalType": "string",
              "name": "title",
              "type": "string"
            }
          ],
          "internalType": "struct MusicMarketplace.Song[]",
          "name": "",
          "type": "tuple[]"
        }
      ],
      "stateMutability": "view",
      "type": "function"
    },
    {
      "inputs": [
        {
          "internalType": "string",
          "name": "_title",
          "type": "string"
        },
        {
          "internalType": "uint256",
          "name": "_price",
          "type": "uint256"
        },
        {
          "internalType": "string",
          "name": "_arweaveURI",
          "type": "string"
        }
      ],
      "name": "listSong",
      "outputs": [],
      "stateMutability": "nonpayable",
      "type": "function"
    }
  ],
  "bytecode": "0x608060405234801561001057600080fd5b5061240e806100206000396000f3fe6080604052600436106100555760003560e01c8063086021b31461005a5780631ad234f9146100855780634ee1f16f146100ae5780635565f660146100d9578063606a017514610104578063e850a0cc14610120575b600080fd5b34801561006657600080fd5b5061006f61015d565b60405161007c9190611bfd565b60405180910390f35b34801561009157600080fd5b506100ac60048036038101906100a79190611d94565b61065e565b005b3480156100ba57600080fd5b506100c36108dd565b6040516100d09190611bfd565b60405180910390f35b3480156100e557600080fd5b506100ee610c5f565b6040516100fb9190611bfd565b60405180910390f35b61011e60048036038101906101199190611e1f565b610e48565b005b34801561012c57600080fd5b5061014760048036038101906101429190611e1f565b611168565b6040516101549190611e96565b60405180910390f35b60606000805b60008054905081101561029f57600080828154811061018557610184611eb8565b5b906000526020600020906005020160030180549050111561028c5760005b600082815481106101b7576101b6611eb8565b5b90600052602060002090600502016003018054905081101561028a573373ffffffffffffffffffffffffffffffffffffffff16600083815481106101fe576101fd611eb8565b5b9060005260206000209060050201600301828154811061022157610220611eb8565b5b9060005260206000200160009054906101000a900473ffffffffffffffffffffffffffffffffffffffff1673ffffffffffffffffffffffffffffffffffffffff16141561027757828061027390611f2a565b9350505b808061028290611f5b565b9150506101a3565b505b808061029790611f5b565b915050610163565b5060008167ffffffffffffffff16116102ed576040517f08c379a00000000000000000000000000000000000000000000000000000000081526004016102e490611ff0565b60405180910390fd5b60008167ffffffffffffffff1667ffffffffffffffff81111561031357610312611c3d565b5b60405190808252806020026020018201604052801561034c57816020015b6103396117aa565b8152602001906001900390816103315790505b50905060005b60008054905081101561065557600080828154811061037457610373611eb8565b5b90600052602060002090600502016003018054905011156106425760005b600082815481106103a6576103a5611eb8565b5b906000526020600020906005020160030180549050811015610640573373ffffffffffffffffffffffffffffffffffffffff16600083815481106103ed576103ec611eb8565b5b906000526020600020906005020160030182815481106104105761040f611eb8565b5b9060005260206000200160009054906101000a900473ffffffffffffffffffffffffffffffffffffffff1673ffffffffffffffffffffffffffffffffffffffff16141561062d576000828154811061046b5761046a611eb8565b5b90600052602060002090600502016040518060a001604052908160008201548152602001600182015481526020016002820160009054906101000a900473ffffffffffffffffffffffffffffffffffffffff1673ffffffffffffffffffffffffffffffffffffffff1673ffffffffffffffffffffffffffffffffffffffff1681526020016003820180548060200260200160405190810160405280929190818152602001828054801561057357602002820191906000526020600020905b8160009054906101000a900473ffffffffffffffffffffffffffffffffffffffff1673ffffffffffffffffffffffffffffffffffffffff1681526020019060010190808311610529575b5050505050815260200160048201805461058c9061203f565b80601f01602080910402602001604051908101604052809291908181526020018280546105b89061203f565b80156106055780601f106105da57610100808354040283529160200191610605565b820191906000526020600020905b8154815290600101906020018083116105e857829003601f168201915b50505050508152505083838151811061062157610620611eb8565b5b60200260200101819052505b808061063890611f5b565b915050610392565b505b808061064d90611f5b565b915050610352565b50809250505090565b6106666117aa565b6000805490508160000181815250508281602001818152505033816040019073ffffffffffffffffffffffffffffffffffffffff16908173ffffffffffffffffffffffffffffffffffffffff16815250508381608001819052506000600167ffffffffffffffff8111156106dd576106dc611c3d565b5b60405190808252806020026020018201604052801561070b5781602001602082028036833780820191505090505b509050338160008151811061072357610722611eb8565b5b602002602001019073ffffffffffffffffffffffffffffffffffffffff16908173ffffffffffffffffffffffffffffffffffffffff16815250508082606001819052506000829080600181540180825580915050600190039060005260206000209060050201600090919091909150600082015181600001556020820151816001015560408201518160020160006101000a81548173ffffffffffffffffffffffffffffffffffffffff021916908373ffffffffffffffffffffffffffffffffffffffff16021790555060608201518160030190805190602001906108099291906117ef565b506080820151816004019080519060200190610826929190611879565b50505061086c6040518060400160405280601481526020017f4c697374696e672066696c6520776974682069640000000000000000000000008152508360000151611649565b8260016000846000015181526020019081526020016000209080519060200190610897929190611879565b5081600001517f8c88911ae6c425091c542315240c163442bec874fd23efb8be44c7c20d7c2e7486866040516108ce929190612080565b60405180910390a25050505050565b60606000805b60008054905081101561098b573373ffffffffffffffffffffffffffffffffffffffff166000828154811061091b5761091a611eb8565b5b906000526020600020906005020160020160009054906101000a900473ffffffffffffffffffffffffffffffffffffffff1673ffffffffffffffffffffffffffffffffffffffff16141561097857818061097490611f5b565b9250505b808061098390611f5b565b9150506108e3565b5060008167ffffffffffffffff8111156109a8576109a7611c3d565b5b6040519080825280602002602001820160405280156109e157816020015b6109ce6117aa565b8152602001906001900390816109c65790505b50905060005b600080549050811015610c56573373ffffffffffffffffffffffffffffffffffffffff1660008281548110610a1f57610a1e611eb8565b5b906000526020600020906005020160020160009054906101000a900473ffffffffffffffffffffffffffffffffffffffff1673ffffffffffffffffffffffffffffffffffffffff161415610c435760008181548110610a8157610a80611eb8565b5b90600052602060002090600502016040518060a001604052908160008201548152602001600182015481526020016002820160009054906101000a900473ffffffffffffffffffffffffffffffffffffffff1673ffffffffffffffffffffffffffffffffffffffff1673ffffffffffffffffffffffffffffffffffffffff16815260200160038201805480602002602001604051908101604052809291908181526020018280548015610b8957602002820191906000526020600020905b8160009054906101000a900473ffffffffffffffffffffffffffffffffffffffff1673ffffffffffffffffffffffffffffffffffffffff1681526020019060010190808311610b3f575b50505050508152602001600482018054610ba29061203f565b80601f0160208091040260200160405190810160405280929190818152602001828054610bce9061203f565b8015610c1b5780601f10610bf057610100808354040283529160200191610c1b565b820191906000526020600020905b815481529060010190602001808311610bfe57829003601f168201915b505050505081525050828281518110610c3757610c36611eb8565b5b60200260200101819052505b8080610c4e90611f5b565b9150506109e7565b50809250505090565b60606000805480602002602001604051908101604052809291908181526020016000905b82821015610e3f57838290600052602060002090600502016040518060a001604052908160008201548152602001600182015481526020016002820160009054906101000a900473ffffffffffffffffffffffffffffffffffffffff1673ffffffffffffffffffffffffffffffffffffffff1673ffffffffffffffffffffffffffffffffffffffff16815260200160038201805480602002602001604051908101604052809291908181526020018280548015610d9557602002820191906000526020600020905b8160009054906101000a900473ffffffffffffffffffffffffffffffffffffffff1673ffffffffffffffffffffffffffffffffffffffff1681526020019060010190808311610d4b575b50505050508152602001600482018054610dae9061203f565b80601f0160208091040260200160405190810160405280929190818152602001828054610dda9061203f565b8015610e275780601f10610dfc57610100808354040283529160200191610e27565b820191906000526020600020905b815481529060010190602001808311610e0a57829003601f168201915b50505050508152505081526020019060010190610c83565b50505050905090565b80806000805490501015610e91576040517f08c379a0000000000000000000000000000000000000000000000000000000008152600401610e88906120fc565b60405180910390fd5b8160008181548110610ea657610ea5611eb8565b5b906000526020600020906005020160020160009054906101000a900473ffffffffffffffffffffffffffffffffffffffff1673ffffffffffffffffffffffffffffffffffffffff163373ffffffffffffffffffffffffffffffffffffffff161415610f46576040517f08c379a0000000000000000000000000000000000000000000000000000000008152600401610f3d90612168565b60405180910390fd5b60008381548110610f5a57610f59611eb8565b5b906000526020600020906005020160010154341015610fae576040517f08c379a0000000000000000000000000000000000000000000000000000000008152600401610fa5906121d4565b60405180910390fd5b6000808481548110610fc357610fc2611eb8565b5b906000526020600020906005020160020160009054906101000a900473ffffffffffffffffffffffffffffffffffffffff16905060008173ffffffffffffffffffffffffffffffffffffffff163460405161101d90612225565b60006040518083038185875af1925050503d806000811461105a576040519150601f19603f3d011682016040523d82523d6000602084013e61105f565b606091505b50509050806110a3576040517f08c379a000000000000000000000000000000000000000000000000000000000815260040161109a90612286565b60405180910390fd5b600085815481106110b7576110b6611eb8565b5b9060005260206000209060050201600301339080600181540180825580915050600190039060005260206000200160009091909190916101000a81548173ffffffffffffffffffffffffffffffffffffffff021916908373ffffffffffffffffffffffffffffffffffffffff160217905550847f97dc5250837a3699c0e8dcfdf7abadc39e453fd7a7a27039c4d1a5819f0891f23360405161115991906122b5565b60405180910390a25050505050565b6060818060008054905010156111b3576040517f08c379a00000000000000000000000000000000000000000000000000000000081526004016111aa906120fc565b60405180910390fd5b8260008082815481106111c9576111c8611eb8565b5b9060005260206000209060050201600301805490501161121e576040517f08c379a00000000000000000000000000000000000000000000000000000000081526004016112159061231c565b60405180910390fd5b6000805b6000838154811061123657611235611eb8565b5b90600052602060002090600502016003018054905081101561139f573373ffffffffffffffffffffffffffffffffffffffff166000848154811061127d5761127c611eb8565b5b906000526020600020906005020160030182815481106112a05761129f611eb8565b5b9060005260206000200160009054906101000a900473ffffffffffffffffffffffffffffffffffffffff1673ffffffffffffffffffffffffffffffffffffffff16141561138c576113876040518060400160405280600d81526020017f466f756e642062757965723a20000000000000000000000000000000000000008152506000858154811061133457611333611eb8565b5b9060005260206000209060050201600301838154811061135757611356611eb8565b5b9060005260206000200160009054906101000a900473ffffffffffffffffffffffffffffffffffffffff166116e5565b600191505b808061139790611f5b565b915050611222565b50806113e0576040517f08c379a00000000000000000000000000000000000000000000000000000000081526004016113d790612388565b60405180910390fd5b6000805b600087815481106113f8576113f7611eb8565b5b906000526020600020906005020160030180549050811015611561573373ffffffffffffffffffffffffffffffffffffffff166000888154811061143f5761143e611eb8565b5b9060005260206000209060050201600301828154811061146257611461611eb8565b5b9060005260206000200160009054906101000a900473ffffffffffffffffffffffffffffffffffffffff1673ffffffffffffffffffffffffffffffffffffffff16141561154e576115496040518060400160405280600d81526020017f466f756e642062757965723a2000000000000000000000000000000000000000815250600089815481106114f6576114f5611eb8565b5b9060005260206000209060050201600301838154811061151957611518611eb8565b5b9060005260206000200160009054906101000a900473ffffffffffffffffffffffffffffffffffffffff166116e5565b600191505b808061155990611f5b565b9150506113e4565b50806115a2576040517f08c379a000000000000000000000000000000000000000000000000000000000815260040161159990612388565b60405180910390fd5b6001600087815260200190815260200160002080546115c09061203f565b80601f01602080910402602001604051908101604052809291908181526020018280546115ec9061203f565b80156116395780601f1061160e57610100808354040283529160200191611639565b820191906000526020600020905b81548152906001019060200180831161161c57829003601f168201915b5050505050945050505050919050565b6116e1828260405160240161165f929190612080565b6040516020818303038152906040527f9710a9d0000000000000000000000000000000000000000000000000000000007bffffffffffffffffffffffffffffffffffffffffffffffffffffffff19166020820180517bffffffffffffffffffffffffffffffffffffffffffffffffffffffff8381831617835250505050611781565b5050565b61177d82826040516024016116fb9291906123a8565b6040516020818303038152906040527f319af333000000000000000000000000000000000000000000000000000000007bffffffffffffffffffffffffffffffffffffffffffffffffffffffff19166020820180517bffffffffffffffffffffffffffffffffffffffffffffffffffffffff8381831617835250505050611781565b5050565b60008151905060006a636f6e736f6c652e6c6f679050602083016000808483855afa5050505050565b6040518060a001604052806000815260200160008152602001600073ffffffffffffffffffffffffffffffffffffffff16815260200160608152602001606081525090565b828054828255906000526020600020908101928215611868579160200282015b828111156118675782518260006101000a81548173ffffffffffffffffffffffffffffffffffffffff021916908373ffffffffffffffffffffffffffffffffffffffff1602179055509160200191906001019061180f565b5b50905061187591906118ff565b5090565b8280546118859061203f565b90600052602060002090601f0160209004810192826118a757600085556118ee565b82601f106118c057805160ff19168380011785556118ee565b828001600101855582156118ee579182015b828111156118ed5782518255916020019190600101906118d2565b5b5090506118fb91906118ff565b5090565b5b80821115611918576000816000905550600101611900565b5090565b600081519050919050565b600082825260208201905092915050565b6000819050602082019050919050565b6000819050919050565b61195b81611948565b82525050565b600073ffffffffffffffffffffffffffffffffffffffff82169050919050565b600061198c82611961565b9050919050565b61199c81611981565b82525050565b600081519050919050565b600082825260208201905092915050565b6000819050602082019050919050565b60006119da8383611993565b60208301905092915050565b6000602082019050919050565b60006119fe826119a2565b611a0881856119ad565b9350611a13836119be565b8060005b83811015611a44578151611a2b88826119ce565b9750611a36836119e6565b925050600181019050611a17565b5085935050505092915050565b600081519050919050565b600082825260208201905092915050565b60005b83811015611a8b578082015181840152602081019050611a70565b83811115611a9a576000848401525b50505050565b6000601f19601f8301169050919050565b6000611abc82611a51565b611ac68185611a5c565b9350611ad6818560208601611a6d565b611adf81611aa0565b840191505092915050565b600060a083016000830151611b026000860182611952565b506020830151611b156020860182611952565b506040830151611b286040860182611993565b5060608301518482036060860152611b4082826119f3565b91505060808301518482036080860152611b5a8282611ab1565b9150508091505092915050565b6000611b738383611aea565b905092915050565b6000602082019050919050565b6000611b938261191c565b611b9d8185611927565b935083602082028501611baf85611938565b8060005b85811015611beb5784840389528151611bcc8582611b67565b9450611bd783611b7b565b925060208a01995050600181019050611bb3565b50829750879550505050505092915050565b60006020820190508181036000830152611c178184611b88565b905092915050565b6000604051905090565b600080fd5b600080fd5b600080fd5b600080fd5b7f4e487b7100000000000000000000000000000000000000000000000000000000600052604160045260246000fd5b611c7582611aa0565b810181811067ffffffffffffffff82111715611c9457611c93611c3d565b5b80604052505050565b6000611ca7611c1f565b9050611cb38282611c6c565b919050565b600067ffffffffffffffff821115611cd357611cd2611c3d565b5b611cdc82611aa0565b9050602081019050919050565b82818337600083830152505050565b6000611d0b611d0684611cb8565b611c9d565b905082815260208101848484011115611d2757611d26611c38565b5b611d32848285611ce9565b509392505050565b600082601f830112611d4f57611d4e611c33565b5b8135611d5f848260208601611cf8565b91505092915050565b611d7181611948565b8114611d7c57600080fd5b50565b600081359050611d8e81611d68565b92915050565b600080600060608486031215611dad57611dac611c29565b5b600084013567ffffffffffffffff811115611dcb57611dca611c2e565b5b611dd786828701611d3a565b9350506020611de886828701611d7f565b925050604084013567ffffffffffffffff811115611e0957611e08611c2e565b5b611e1586828701611d3a565b9150509250925092565b600060208284031215611e3557611e34611c29565b5b6000611e4384828501611d7f565b91505092915050565b600082825260208201905092915050565b6000611e6882611a51565b611e728185611e4c565b9350611e82818560208601611a6d565b611e8b81611aa0565b840191505092915050565b60006020820190508181036000830152611eb08184611e5d565b905092915050565b7f4e487b7100000000000000000000000000000000000000000000000000000000600052603260045260246000fd5b7f4e487b7100000000000000000000000000000000000000000000000000000000600052601160045260246000fd5b600067ffffffffffffffff82169050919050565b6000611f3582611f16565b915067ffffffffffffffff821415611f5057611f4f611ee7565b5b600182019050919050565b6000611f6682611948565b91507fffffffffffffffffffffffffffffffffffffffffffffffffffffffffffffffff821415611f9957611f98611ee7565b5b600182019050919050565b7f596f7520626f75676874206e6f20736f6e677300000000000000000000000000600082015250565b6000611fda601383611e4c565b9150611fe582611fa4565b602082019050919050565b6000602082019050818103600083015261200981611fcd565b9050919050565b7f4e487b7100000000000000000000000000000000000000000000000000000000600052602260045260246000fd5b6000600282049050600182168061205757607f821691505b6020821081141561206b5761206a612010565b5b50919050565b61207a81611948565b82525050565b6000604082019050818103600083015261209a8185611e5d565b90506120a96020830184612071565b9392505050565b7f54686520736f6e6720646f6573206e6f74206578697374000000000000000000600082015250565b60006120e6601783611e4c565b91506120f1826120b0565b602082019050919050565b60006020820190508181036000830152612115816120d9565b9050919050565b7f596f75206172652074686520617574686f72206f66207468697320736f6e6700600082015250565b6000612152601f83611e4c565b915061215d8261211c565b602082019050919050565b6000602082019050818103600083015261218181612145565b9050919050565b7f4e6f7420656e6f7567682066756e647300000000000000000000000000000000600082015250565b60006121be601083611e4c565b91506121c982612188565b602082019050919050565b600060208201905081810360008301526121ed816121b1565b9050919050565b600081905092915050565b50565b600061220f6000836121f4565b915061221a826121ff565b600082019050919050565b600061223082612202565b9150819050919050565b7f4661696c656420746f2073656e64204574686572000000000000000000000000600082015250565b6000612270601483611e4c565b915061227b8261223a565b602082019050919050565b6000602082019050818103600083015261229f81612263565b9050919050565b6122af81611981565b82525050565b60006020820190506122ca60008301846122a6565b92915050565b7f54686520736f6e6720686173206e6f2062757965727300000000000000000000600082015250565b6000612306601683611e4c565b9150612311826122d0565b602082019050919050565b60006020820190508181036000830152612335816122f9565b9050919050565b7f596f7520646f206e6f74206f776e207468697320736f6e672e00000000000000600082015250565b6000612372601983611e4c565b915061237d8261233c565b602082019050919050565b600060208201905081810360008301526123a181612365565b9050919050565b600060408201905081810360008301526123c28185611e5d565b90506123d160208301846122a6565b939250505056fea2646970667358221220aa8d4cc2a07f6143211fddf0fb406663cd94237650dae4c7e8f98b2cd202dd4d64736f6c63430008090033",
  "linkReferences": {},
  "deployedLinkReferences": {}
}