{
  "_format": "hh-sol-artifact-1",
  "contractName": "DropAndSell",
  "sourceName": "solidity/contracts/DropAndSell.sol",
  "abi": [
    {
      "anonymous": false,
      "inputs": [
        {
          "indexed": true,
          "internalType": "uint256",
          "name": "id",
          "type": "uint256"
        },
        {
          "indexed": false,
          "internalType": "string",
          "name": "title",
          "type": "string"
        },
        {
          "indexed": false,
          "internalType": "uint256",
          "name": "price",
          "type": "uint256"
        }
      ],
      "name": "FileListed",
      "type": "event"
    },
    {
      "anonymous": false,
      "inputs": [
        {
          "indexed": true,
          "internalType": "uint256",
          "name": "id",
          "type": "uint256"
        },
        {
          "indexed": false,
          "internalType": "address",
          "name": "buyer",
          "type": "address"
        }
      ],
      "name": "FileSold",
      "type": "event"
    },
    {
      "inputs": [
        {
          "internalType": "uint256",
          "name": "_id",
          "type": "uint256"
        }
      ],
      "name": "buyFile",
      "outputs": [],
      "stateMutability": "payable",
      "type": "function"
    },
    {
      "inputs": [],
      "name": "getBoughtFiles",
      "outputs": [
        {
          "components": [
            {
              "internalType": "uint256",
              "name": "id",
              "type": "uint256"
            },
            {
              "internalType": "uint256",
              "name": "price",
              "type": "uint256"
            },
            {
              "internalType": "address",
              "name": "owner",
              "type": "address"
            },
            {
              "internalType": "address[]",
              "name": "buyers",
              "type": "address[]"
            },
            {
              "internalType": "string",
              "name": "title",
              "type": "string"
            }
          ],
          "internalType": "struct DropAndSell.File[]",
          "name": "",
          "type": "tuple[]"
        }
      ],
      "stateMutability": "view",
      "type": "function"
    },
    {
      "inputs": [
        {
          "internalType": "uint256",
          "name": "_id",
          "type": "uint256"
        }
      ],
      "name": "getDownloadLink",
      "outputs": [
        {
          "internalType": "string",
          "name": "",
          "type": "string"
        }
      ],
      "stateMutability": "view",
      "type": "function"
    },
    {
      "inputs": [],
      "name": "getFiles",
      "outputs": [
        {
          "components": [
            {
              "internalType": "uint256",
              "name": "id",
              "type": "uint256"
            },
            {
              "internalType": "uint256",
              "name": "price",
              "type": "uint256"
            },
            {
              "internalType": "address",
              "name": "owner",
              "type": "address"
            },
            {
              "internalType": "address[]",
              "name": "buyers",
              "type": "address[]"
            },
            {
              "internalType": "string",
              "name": "title",
              "type": "string"
            }
          ],
          "internalType": "struct DropAndSell.File[]",
          "name": "",
          "type": "tuple[]"
        }
      ],
      "stateMutability": "view",
      "type": "function"
    },
    {
      "inputs": [],
      "name": "getOwnedFiles",
      "outputs": [
        {
          "components": [
            {
              "internalType": "uint256",
              "name": "id",
              "type": "uint256"
            },
            {
              "internalType": "uint256",
              "name": "price",
              "type": "uint256"
            },
            {
              "internalType": "address",
              "name": "owner",
              "type": "address"
            },
            {
              "internalType": "address[]",
              "name": "buyers",
              "type": "address[]"
            },
            {
              "internalType": "string",
              "name": "title",
              "type": "string"
            }
          ],
          "internalType": "struct DropAndSell.File[]",
          "name": "",
          "type": "tuple[]"
        }
      ],
      "stateMutability": "view",
      "type": "function"
    },
    {
      "inputs": [
        {
          "internalType": "string",
          "name": "_title",
          "type": "string"
        },
        {
          "internalType": "uint64",
          "name": "_price",
          "type": "uint64"
        },
        {
          "internalType": "string",
          "name": "_arweaveURI",
          "type": "string"
        }
      ],
      "name": "listFile",
      "outputs": [],
      "stateMutability": "nonpayable",
      "type": "function"
    }
  ],
  "bytecode": "0x608060405234801561001057600080fd5b50612879806100206000396000f3fe6080604052600436106100555760003560e01c80631b5ab6dc1461005a5780632da96d73146100855780634c619f89146100b057806353787b3a146100cc57806397a0fd3e146100f5578063e850a0cc14610120575b600080fd5b34801561006657600080fd5b5061006f61015d565b60405161007c9190611fcb565b60405180910390f35b34801561009157600080fd5b5061009a6108bf565b6040516100a79190611fcb565b60405180910390f35b6100ca60048036038101906100c5919061202d565b610aa8565b005b3480156100d857600080fd5b506100f360048036038101906100ee91906121cf565b611049565b005b34801561010157600080fd5b5061010a6111f8565b6040516101179190611fcb565b60405180910390f35b34801561012c57600080fd5b506101476004803603810190610142919061202d565b61157a565b60405161015491906122a4565b60405180910390f35b606060006101a56040518060400160405280600e81526020017f66696c65732e6c656e6774683a200000000000000000000000000000000000008152506000805490506118e2565b60005b60008054905081101561046e5760008082815481106101ca576101c96122c6565b5b906000526020600020906005020160030180549050111561041b5761024c6040518060400160405280600f81526020017f427579657273206c656e6774683a20000000000000000000000000000000000081525060008381548110610232576102316122c6565b5b9060005260206000209060050201600301805490506118e2565b60005b60008281548110610263576102626122c6565b5b906000526020600020906005020160030180549050811015610415576102be6040518060400160405280600181526020017f7800000000000000000000000000000000000000000000000000000000000000815250826118e2565b3373ffffffffffffffffffffffffffffffffffffffff16600083815481106102e9576102e86122c6565b5b9060005260206000209060050201600301828154811061030c5761030b6122c6565b5b9060005260206000200160009054906101000a900473ffffffffffffffffffffffffffffffffffffffff1673ffffffffffffffffffffffffffffffffffffffff161415610402576103f36040518060400160405280600d81526020017f466f756e642062757965723a2000000000000000000000000000000000000000815250600084815481106103a05761039f6122c6565b5b906000526020600020906005020160030183815481106103c3576103c26122c6565b5b9060005260206000200160009054906101000a900473ffffffffffffffffffffffffffffffffffffffff1661197e565b82806103fe90612324565b9350505b808061040d90612324565b91505061024f565b5061045b565b61045a6040518060400160405280601481526020017f4e6f2062757965727320666f722066696c653a20000000000000000000000000815250826118e2565b5b808061046690612324565b9150506101a8565b506104ae6040518060400160405280601581526020017f726573436f756e74206166746572206c6f6f703a200000000000000000000000815250826118e2565b600081116104f1576040517f08c379a00000000000000000000000000000000000000000000000000000000081526004016104e8906123b9565b60405180910390fd5b60008167ffffffffffffffff81111561050d5761050c612064565b5b60405190808252806020026020018201604052801561054657816020015b610533611b78565b81526020019060019003908161052b5790505b50905060005b6000805490508110156108b657600080828154811061056e5761056d6122c6565b5b90600052602060002090600502016003018054905011156108a3576105f06040518060400160405280600881526020017f4c656e6774683a20000000000000000000000000000000000000000000000000815250600083815481106105d6576105d56122c6565b5b9060005260206000209060050201600301805490506118e2565b60005b60008281548110610607576106066122c6565b5b9060005260206000209060050201600301805490508110156108a1573373ffffffffffffffffffffffffffffffffffffffff166000838154811061064e5761064d6122c6565b5b90600052602060002090600502016003018281548110610671576106706122c6565b5b9060005260206000200160009054906101000a900473ffffffffffffffffffffffffffffffffffffffff1673ffffffffffffffffffffffffffffffffffffffff16141561088e57600082815481106106cc576106cb6122c6565b5b90600052602060002090600502016040518060a001604052908160008201548152602001600182015481526020016002820160009054906101000a900473ffffffffffffffffffffffffffffffffffffffff1673ffffffffffffffffffffffffffffffffffffffff1673ffffffffffffffffffffffffffffffffffffffff168152602001600382018054806020026020016040519081016040528092919081815260200182805480156107d457602002820191906000526020600020905b8160009054906101000a900473ffffffffffffffffffffffffffffffffffffffff1673ffffffffffffffffffffffffffffffffffffffff168152602001906001019080831161078a575b505050505081526020016004820180546107ed90612408565b80601f016020809104026020016040519081016040528092919081815260200182805461081990612408565b80156108665780601f1061083b57610100808354040283529160200191610866565b820191906000526020600020905b81548152906001019060200180831161084957829003601f168201915b505050505081525050838381518110610882576108816122c6565b5b60200260200101819052505b808061089990612324565b9150506105f3565b505b80806108ae90612324565b91505061054c565b50809250505090565b60606000805480602002602001604051908101604052809291908181526020016000905b82821015610a9f57838290600052602060002090600502016040518060a001604052908160008201548152602001600182015481526020016002820160009054906101000a900473ffffffffffffffffffffffffffffffffffffffff1673ffffffffffffffffffffffffffffffffffffffff1673ffffffffffffffffffffffffffffffffffffffff168152602001600382018054806020026020016040519081016040528092919081815260200182805480156109f557602002820191906000526020600020905b8160009054906101000a900473ffffffffffffffffffffffffffffffffffffffff1673ffffffffffffffffffffffffffffffffffffffff16815260200190600101908083116109ab575b50505050508152602001600482018054610a0e90612408565b80601f0160208091040260200160405190810160405280929190818152602001828054610a3a90612408565b8015610a875780601f10610a5c57610100808354040283529160200191610a87565b820191906000526020600020905b815481529060010190602001808311610a6a57829003601f168201915b505050505081525050815260200190600101906108e3565b50505050905090565b80806000805490501015610af1576040517f08c379a0000000000000000000000000000000000000000000000000000000008152600401610ae890612486565b60405180910390fd5b8160008181548110610b0657610b056122c6565b5b906000526020600020906005020160020160009054906101000a900473ffffffffffffffffffffffffffffffffffffffff1673ffffffffffffffffffffffffffffffffffffffff163373ffffffffffffffffffffffffffffffffffffffff161415610ba6576040517f08c379a0000000000000000000000000000000000000000000000000000000008152600401610b9d906124f2565b60405180910390fd5b610be56040518060400160405280601281526020017f436f6e74726163742062616c616e63653a200000000000000000000000000000815250476118e2565b610c246040518060400160405280600b81526020017f6d73672e76616c75653a20000000000000000000000000000000000000000000815250346118e2565b610c886040518060400160405280600c81526020017f66696c652070726963653a20000000000000000000000000000000000000000081525060008581548110610c7157610c706122c6565b5b9060005260206000209060050201600101546118e2565b60008381548110610c9c57610c9b6122c6565b5b906000526020600020906005020160010154341015610cf0576040517f08c379a0000000000000000000000000000000000000000000000000000000008152600401610ce79061255e565b60405180910390fd5b610d2e6040518060400160405280600d81526020017f436865636b65642066756e647300000000000000000000000000000000000000815250611a1a565b6000808481548110610d4357610d426122c6565b5b906000526020600020906005020160020160009054906101000a900473ffffffffffffffffffffffffffffffffffffffff16905060008173ffffffffffffffffffffffffffffffffffffffff1634604051610d9d906125af565b60006040518083038185875af1925050503d8060008114610dda576040519150601f19603f3d011682016040523d82523d6000602084013e610ddf565b606091505b5050905080610e23576040517f08c379a0000000000000000000000000000000000000000000000000000000008152600401610e1a90612610565b60405180910390fd5b610e616040518060400160405280600a81526020017f45746865722073656e7400000000000000000000000000000000000000000000815250611a1a565b60008581548110610e7557610e746122c6565b5b9060005260206000209060050201600301339080600181540180825580915050600190039060005260206000200160009091909190916101000a81548173ffffffffffffffffffffffffffffffffffffffff021916908373ffffffffffffffffffffffffffffffffffffffff160217905550610f256040518060400160405280600b81526020017f4164646564206275796572000000000000000000000000000000000000000000815250611a1a565b847f4cdb6e7316f82eb61432dc9e1012e5c90c4222b04c6d39247c20a7c5d3c07e0633604051610f55919061263f565b60405180910390a26110426040518060400160405280600981526020017f506174682069733a20000000000000000000000000000000000000000000000081525060018781548110610faa57610fa96122c6565b5b906000526020600020018054610fbf90612408565b80601f0160208091040260200160405190810160405280929190818152602001828054610feb90612408565b80156110385780601f1061100d57610100808354040283529160200191611038565b820191906000526020600020905b81548152906001019060200180831161101b57829003601f168201915b5050505050611ab3565b5050505050565b611051611b78565b6000805490508160000181815250508267ffffffffffffffff1681602001818152505033816040019073ffffffffffffffffffffffffffffffffffffffff16908173ffffffffffffffffffffffffffffffffffffffff16815250508381608001819052506000819080600181540180825580915050600190039060005260206000209060050201600090919091909150600082015181600001556020820151816001015560408201518160020160006101000a81548173ffffffffffffffffffffffffffffffffffffffff021916908373ffffffffffffffffffffffffffffffffffffffff1602179055506060820151816003019080519060200190611158929190611bbd565b506080820151816004019080519060200190611175929190611c47565b5050506001829080600181540180825580915050600190039060005260206000200160009091909190915090805190602001906111b3929190611c47565b5080600001517f2fe849cb615f97d808fcd3fcddc557d252e861ea32d9c7455d384de86380ec7a85856040516111ea929190612695565b60405180910390a250505050565b60606000805b6000805490508110156112a6573373ffffffffffffffffffffffffffffffffffffffff1660008281548110611236576112356122c6565b5b906000526020600020906005020160020160009054906101000a900473ffffffffffffffffffffffffffffffffffffffff1673ffffffffffffffffffffffffffffffffffffffff16141561129357818061128f90612324565b9250505b808061129e90612324565b9150506111fe565b5060008167ffffffffffffffff8111156112c3576112c2612064565b5b6040519080825280602002602001820160405280156112fc57816020015b6112e9611b78565b8152602001906001900390816112e15790505b50905060005b600080549050811015611571573373ffffffffffffffffffffffffffffffffffffffff166000828154811061133a576113396122c6565b5b906000526020600020906005020160020160009054906101000a900473ffffffffffffffffffffffffffffffffffffffff1673ffffffffffffffffffffffffffffffffffffffff16141561155e576000818154811061139c5761139b6122c6565b5b90600052602060002090600502016040518060a001604052908160008201548152602001600182015481526020016002820160009054906101000a900473ffffffffffffffffffffffffffffffffffffffff1673ffffffffffffffffffffffffffffffffffffffff1673ffffffffffffffffffffffffffffffffffffffff168152602001600382018054806020026020016040519081016040528092919081815260200182805480156114a457602002820191906000526020600020905b8160009054906101000a900473ffffffffffffffffffffffffffffffffffffffff1673ffffffffffffffffffffffffffffffffffffffff168152602001906001019080831161145a575b505050505081526020016004820180546114bd90612408565b80601f01602080910402602001604051908101604052809291908181526020018280546114e990612408565b80156115365780601f1061150b57610100808354040283529160200191611536565b820191906000526020600020905b81548152906001019060200180831161151957829003601f168201915b505050505081525050828281518110611552576115516122c6565b5b60200260200101819052505b808061156990612324565b915050611302565b50809250505090565b6060818060008054905010156115c5576040517f08c379a00000000000000000000000000000000000000000000000000000000081526004016115bc90612486565b60405180910390fd5b8260008082815481106115db576115da6122c6565b5b90600052602060002090600502016003018054905011611630576040517f08c379a000000000000000000000000000000000000000000000000000000000815260040161162790612711565b60405180910390fd5b6000805b60008381548110611648576116476122c6565b5b9060005260206000209060050201600301805490508110156117f0576116a36040518060400160405280600181526020017f7800000000000000000000000000000000000000000000000000000000000000815250826118e2565b3373ffffffffffffffffffffffffffffffffffffffff16600084815481106116ce576116cd6122c6565b5b906000526020600020906005020160030182815481106116f1576116f06122c6565b5b9060005260206000200160009054906101000a900473ffffffffffffffffffffffffffffffffffffffff1673ffffffffffffffffffffffffffffffffffffffff1614156117dd576117d86040518060400160405280600d81526020017f466f756e642062757965723a200000000000000000000000000000000000000081525060008581548110611785576117846122c6565b5b906000526020600020906005020160030183815481106117a8576117a76122c6565b5b9060005260206000200160009054906101000a900473ffffffffffffffffffffffffffffffffffffffff1661197e565b600191505b80806117e890612324565b915050611634565b5080611831576040517f08c379a00000000000000000000000000000000000000000000000000000000081526004016118289061277d565b60405180910390fd5b60018581548110611845576118446122c6565b5b90600052602060002001805461185a90612408565b80601f016020809104026020016040519081016040528092919081815260200182805461188690612408565b80156118d35780601f106118a8576101008083540402835291602001916118d3565b820191906000526020600020905b8154815290600101906020018083116118b657829003601f168201915b50505050509350505050919050565b61197a82826040516024016118f89291906127ac565b6040516020818303038152906040527f9710a9d0000000000000000000000000000000000000000000000000000000007bffffffffffffffffffffffffffffffffffffffffffffffffffffffff19166020820180517bffffffffffffffffffffffffffffffffffffffffffffffffffffffff8381831617835250505050611b4f565b5050565b611a1682826040516024016119949291906127dc565b6040516020818303038152906040527f319af333000000000000000000000000000000000000000000000000000000007bffffffffffffffffffffffffffffffffffffffffffffffffffffffff19166020820180517bffffffffffffffffffffffffffffffffffffffffffffffffffffffff8381831617835250505050611b4f565b5050565b611ab081604051602401611a2e91906122a4565b6040516020818303038152906040527f41304fac000000000000000000000000000000000000000000000000000000007bffffffffffffffffffffffffffffffffffffffffffffffffffffffff19166020820180517bffffffffffffffffffffffffffffffffffffffffffffffffffffffff8381831617835250505050611b4f565b50565b611b4b8282604051602401611ac992919061280c565b6040516020818303038152906040527f4b5c4277000000000000000000000000000000000000000000000000000000007bffffffffffffffffffffffffffffffffffffffffffffffffffffffff19166020820180517bffffffffffffffffffffffffffffffffffffffffffffffffffffffff8381831617835250505050611b4f565b5050565b60008151905060006a636f6e736f6c652e6c6f679050602083016000808483855afa5050505050565b6040518060a001604052806000815260200160008152602001600073ffffffffffffffffffffffffffffffffffffffff16815260200160608152602001606081525090565b828054828255906000526020600020908101928215611c36579160200282015b82811115611c355782518260006101000a81548173ffffffffffffffffffffffffffffffffffffffff021916908373ffffffffffffffffffffffffffffffffffffffff16021790555091602001919060010190611bdd565b5b509050611c439190611ccd565b5090565b828054611c5390612408565b90600052602060002090601f016020900481019282611c755760008555611cbc565b82601f10611c8e57805160ff1916838001178555611cbc565b82800160010185558215611cbc579182015b82811115611cbb578251825591602001919060010190611ca0565b5b509050611cc99190611ccd565b5090565b5b80821115611ce6576000816000905550600101611cce565b5090565b600081519050919050565b600082825260208201905092915050565b6000819050602082019050919050565b6000819050919050565b611d2981611d16565b82525050565b600073ffffffffffffffffffffffffffffffffffffffff82169050919050565b6000611d5a82611d2f565b9050919050565b611d6a81611d4f565b82525050565b600081519050919050565b600082825260208201905092915050565b6000819050602082019050919050565b6000611da88383611d61565b60208301905092915050565b6000602082019050919050565b6000611dcc82611d70565b611dd68185611d7b565b9350611de183611d8c565b8060005b83811015611e12578151611df98882611d9c565b9750611e0483611db4565b925050600181019050611de5565b5085935050505092915050565b600081519050919050565b600082825260208201905092915050565b60005b83811015611e59578082015181840152602081019050611e3e565b83811115611e68576000848401525b50505050565b6000601f19601f8301169050919050565b6000611e8a82611e1f565b611e948185611e2a565b9350611ea4818560208601611e3b565b611ead81611e6e565b840191505092915050565b600060a083016000830151611ed06000860182611d20565b506020830151611ee36020860182611d20565b506040830151611ef66040860182611d61565b5060608301518482036060860152611f0e8282611dc1565b91505060808301518482036080860152611f288282611e7f565b9150508091505092915050565b6000611f418383611eb8565b905092915050565b6000602082019050919050565b6000611f6182611cea565b611f6b8185611cf5565b935083602082028501611f7d85611d06565b8060005b85811015611fb95784840389528151611f9a8582611f35565b9450611fa583611f49565b925060208a01995050600181019050611f81565b50829750879550505050505092915050565b60006020820190508181036000830152611fe58184611f56565b905092915050565b6000604051905090565b600080fd5b600080fd5b61200a81611d16565b811461201557600080fd5b50565b60008135905061202781612001565b92915050565b60006020828403121561204357612042611ff7565b5b600061205184828501612018565b91505092915050565b600080fd5b600080fd5b7f4e487b7100000000000000000000000000000000000000000000000000000000600052604160045260246000fd5b61209c82611e6e565b810181811067ffffffffffffffff821117156120bb576120ba612064565b5b80604052505050565b60006120ce611fed565b90506120da8282612093565b919050565b600067ffffffffffffffff8211156120fa576120f9612064565b5b61210382611e6e565b9050602081019050919050565b82818337600083830152505050565b600061213261212d846120df565b6120c4565b90508281526020810184848401111561214e5761214d61205f565b5b612159848285612110565b509392505050565b600082601f8301126121765761217561205a565b5b813561218684826020860161211f565b91505092915050565b600067ffffffffffffffff82169050919050565b6121ac8161218f565b81146121b757600080fd5b50565b6000813590506121c9816121a3565b92915050565b6000806000606084860312156121e8576121e7611ff7565b5b600084013567ffffffffffffffff81111561220657612205611ffc565b5b61221286828701612161565b9350506020612223868287016121ba565b925050604084013567ffffffffffffffff81111561224457612243611ffc565b5b61225086828701612161565b9150509250925092565b600082825260208201905092915050565b600061227682611e1f565b612280818561225a565b9350612290818560208601611e3b565b61229981611e6e565b840191505092915050565b600060208201905081810360008301526122be818461226b565b905092915050565b7f4e487b7100000000000000000000000000000000000000000000000000000000600052603260045260246000fd5b7f4e487b7100000000000000000000000000000000000000000000000000000000600052601160045260246000fd5b600061232f82611d16565b91507fffffffffffffffffffffffffffffffffffffffffffffffffffffffffffffffff821415612362576123616122f5565b5b600182019050919050565b7f596f7520626f75676874206e6f2066696c657300000000000000000000000000600082015250565b60006123a360138361225a565b91506123ae8261236d565b602082019050919050565b600060208201905081810360008301526123d281612396565b9050919050565b7f4e487b7100000000000000000000000000000000000000000000000000000000600052602260045260246000fd5b6000600282049050600182168061242057607f821691505b60208210811415612434576124336123d9565b5b50919050565b7f5468652066696c6520646f6573206e6f74206578697374730000000000000000600082015250565b600061247060188361225a565b915061247b8261243a565b602082019050919050565b6000602082019050818103600083015261249f81612463565b9050919050565b7f596f752061726520746865206f776e6572206f6620746869732066696c650000600082015250565b60006124dc601e8361225a565b91506124e7826124a6565b602082019050919050565b6000602082019050818103600083015261250b816124cf565b9050919050565b7f4e6f7420656e6f7567682066756e647300000000000000000000000000000000600082015250565b600061254860108361225a565b915061255382612512565b602082019050919050565b600060208201905081810360008301526125778161253b565b9050919050565b600081905092915050565b50565b600061259960008361257e565b91506125a482612589565b600082019050919050565b60006125ba8261258c565b9150819050919050565b7f4661696c656420746f2073656e64204574686572000000000000000000000000600082015250565b60006125fa60148361225a565b9150612605826125c4565b602082019050919050565b60006020820190508181036000830152612629816125ed565b9050919050565b61263981611d4f565b82525050565b60006020820190506126546000830184612630565b92915050565b6000819050919050565b600061267f61267a6126758461218f565b61265a565b611d16565b9050919050565b61268f81612664565b82525050565b600060408201905081810360008301526126af818561226b565b90506126be6020830184612686565b9392505050565b7f5468652066696c6520686173206e6f2062757965727300000000000000000000600082015250565b60006126fb60168361225a565b9150612706826126c5565b602082019050919050565b6000602082019050818103600083015261272a816126ee565b9050919050565b7f596f7520646f206e6f74206f776e20746869732066696c652e00000000000000600082015250565b600061276760198361225a565b915061277282612731565b602082019050919050565b600060208201905081810360008301526127968161275a565b9050919050565b6127a681611d16565b82525050565b600060408201905081810360008301526127c6818561226b565b90506127d5602083018461279d565b9392505050565b600060408201905081810360008301526127f6818561226b565b90506128056020830184612630565b9392505050565b60006040820190508181036000830152612826818561226b565b9050818103602083015261283a818461226b565b9050939250505056fea26469706673582212201e006935f86416b8d94ea856bf9c8130754653f865eefe89dfd80939ed7c1a2664736f6c63430008090033",
  "linkReferences": {},
  "deployedLinkReferences": {}
}