{
  "_format": "hh-sol-artifact-1",
  "contractName": "DropAndSell",
  "sourceName": "solidity/contracts/DropAndSell.sol",
  "abi": [
    {
      "anonymous": false,
      "inputs": [
        {
          "indexed": true,
          "internalType": "uint256",
          "name": "id",
          "type": "uint256"
        },
        {
          "indexed": false,
          "internalType": "string",
          "name": "title",
          "type": "string"
        },
        {
          "indexed": false,
          "internalType": "uint256",
          "name": "price",
          "type": "uint256"
        }
      ],
      "name": "FileListed",
      "type": "event"
    },
    {
      "anonymous": false,
      "inputs": [
        {
          "indexed": true,
          "internalType": "uint256",
          "name": "id",
          "type": "uint256"
        },
        {
          "indexed": false,
          "internalType": "address",
          "name": "buyer",
          "type": "address"
        }
      ],
      "name": "FileSold",
      "type": "event"
    },
    {
      "inputs": [
        {
          "internalType": "uint256",
          "name": "_id",
          "type": "uint256"
        }
      ],
      "name": "buyFile",
      "outputs": [
        {
          "internalType": "string[]",
          "name": "",
          "type": "string[]"
        }
      ],
      "stateMutability": "payable",
      "type": "function"
    },
    {
      "inputs": [],
      "name": "getBoughtFiles",
      "outputs": [
        {
          "components": [
            {
              "internalType": "uint256",
              "name": "id",
              "type": "uint256"
            },
            {
              "internalType": "uint256",
              "name": "price",
              "type": "uint256"
            },
            {
              "internalType": "address",
              "name": "owner",
              "type": "address"
            },
            {
              "internalType": "address[]",
              "name": "buyers",
              "type": "address[]"
            },
            {
              "internalType": "string",
              "name": "title",
              "type": "string"
            }
          ],
          "internalType": "struct DropAndSell.File[]",
          "name": "",
          "type": "tuple[]"
        }
      ],
      "stateMutability": "view",
      "type": "function"
    },
    {
      "inputs": [],
      "name": "getFiles",
      "outputs": [
        {
          "components": [
            {
              "internalType": "uint256",
              "name": "id",
              "type": "uint256"
            },
            {
              "internalType": "uint256",
              "name": "price",
              "type": "uint256"
            },
            {
              "internalType": "address",
              "name": "owner",
              "type": "address"
            },
            {
              "internalType": "address[]",
              "name": "buyers",
              "type": "address[]"
            },
            {
              "internalType": "string",
              "name": "title",
              "type": "string"
            }
          ],
          "internalType": "struct DropAndSell.File[]",
          "name": "",
          "type": "tuple[]"
        }
      ],
      "stateMutability": "view",
      "type": "function"
    },
    {
      "inputs": [],
      "name": "getOwnedFiles",
      "outputs": [
        {
          "components": [
            {
              "internalType": "uint256",
              "name": "id",
              "type": "uint256"
            },
            {
              "internalType": "uint256",
              "name": "price",
              "type": "uint256"
            },
            {
              "internalType": "address",
              "name": "owner",
              "type": "address"
            },
            {
              "internalType": "address[]",
              "name": "buyers",
              "type": "address[]"
            },
            {
              "internalType": "string",
              "name": "title",
              "type": "string"
            }
          ],
          "internalType": "struct DropAndSell.File[]",
          "name": "",
          "type": "tuple[]"
        }
      ],
      "stateMutability": "view",
      "type": "function"
    },
    {
      "inputs": [
        {
          "internalType": "string",
          "name": "_title",
          "type": "string"
        },
        {
          "internalType": "uint64",
          "name": "_price",
          "type": "uint64"
        },
        {
          "internalType": "string",
          "name": "_arweaveURI",
          "type": "string"
        }
      ],
      "name": "listFile",
      "outputs": [],
      "stateMutability": "nonpayable",
      "type": "function"
    }
  ],
  "bytecode": "0x608060405234801561001057600080fd5b50612432806100206000396000f3fe60806040526004361061004a5760003560e01c80631b5ab6dc1461004f5780632da96d731461007a5780634c619f89146100a557806353787b3a146100d557806397a0fd3e146100fe575b600080fd5b34801561005b57600080fd5b50610064610129565b6040516100719190611be7565b60405180910390f35b34801561008657600080fd5b5061008f6108b2565b60405161009c9190611be7565b60405180910390f35b6100bf60048036038101906100ba9190611c49565b610a9b565b6040516100cc9190611d38565b60405180910390f35b3480156100e157600080fd5b506100fc60048036038101906100f79190611ecf565b611069565b005b34801561010a57600080fd5b50610113611218565b6040516101209190611be7565b60405180910390f35b606060006101716040518060400160405280600e81526020017f66696c65732e6c656e6774683a2000000000000000000000000000000000000081525060008054905061159a565b60005b60016000805490506101869190611f89565b81101561048c576101cc6040518060400160405280600281526020017f693a0000000000000000000000000000000000000000000000000000000000008152508261159a565b60008082815481106101e1576101e0611fbd565b5b9060005260206000209060050201600301805490501115610479576102636040518060400160405280600881526020017f4c656e6774683a200000000000000000000000000000000000000000000000008152506000838154811061024957610248611fbd565b5b90600052602060002090600502016003018054905061159a565b60005b60016000838154811061027c5761027b611fbd565b5b90600052602060002090600502016003018054905061029b9190611f89565b821015610477576102e16040518060400160405280600181526020017f78000000000000000000000000000000000000000000000000000000000000008152508261159a565b3373ffffffffffffffffffffffffffffffffffffffff166000838154811061030c5761030b611fbd565b5b9060005260206000209060050201600301828154811061032f5761032e611fbd565b5b9060005260206000200160009054906101000a900473ffffffffffffffffffffffffffffffffffffffff1673ffffffffffffffffffffffffffffffffffffffff161415610464576104166040518060400160405280600d81526020017f466f756e642062757965723a2000000000000000000000000000000000000000815250600084815481106103c3576103c2611fbd565b5b906000526020600020906005020160030183815481106103e6576103e5611fbd565b5b9060005260206000200160009054906101000a900473ffffffffffffffffffffffffffffffffffffffff16611636565b828061042190611fec565b9350506104636040518060400160405280600a81526020017f726573436f756e743a20000000000000000000000000000000000000000000008152508461159a565b5b808061046f90611fec565b915050610266565b505b808061048490611fec565b915050610174565b506104cc6040518060400160405280601581526020017f726573436f756e74206166746572206c6f6f703a2000000000000000000000008152508261159a565b60008167ffffffffffffffff8111156104e8576104e7611d64565b5b60405190808252806020026020018201604052801561052157816020015b61050e611794565b8152602001906001900390816105065790505b50905060005b60016000805490506105399190611f89565b8110156108a957600080828154811061055557610554611fbd565b5b9060005260206000209060050201600301805490501115610896576105d76040518060400160405280600881526020017f4c656e6774683a20000000000000000000000000000000000000000000000000815250600083815481106105bd576105bc611fbd565b5b90600052602060002090600502016003018054905061159a565b60005b6001600083815481106105f0576105ef611fbd565b5b90600052602060002090600502016003018054905061060f9190611f89565b811015610894573373ffffffffffffffffffffffffffffffffffffffff166000838154811061064157610640611fbd565b5b9060005260206000209060050201600301828154811061066457610663611fbd565b5b9060005260206000200160009054906101000a900473ffffffffffffffffffffffffffffffffffffffff1673ffffffffffffffffffffffffffffffffffffffff16141561088157600082815481106106bf576106be611fbd565b5b90600052602060002090600502016040518060a001604052908160008201548152602001600182015481526020016002820160009054906101000a900473ffffffffffffffffffffffffffffffffffffffff1673ffffffffffffffffffffffffffffffffffffffff1673ffffffffffffffffffffffffffffffffffffffff168152602001600382018054806020026020016040519081016040528092919081815260200182805480156107c757602002820191906000526020600020905b8160009054906101000a900473ffffffffffffffffffffffffffffffffffffffff1673ffffffffffffffffffffffffffffffffffffffff168152602001906001019080831161077d575b505050505081526020016004820180546107e090612064565b80601f016020809104026020016040519081016040528092919081815260200182805461080c90612064565b80156108595780601f1061082e57610100808354040283529160200191610859565b820191906000526020600020905b81548152906001019060200180831161083c57829003601f168201915b50505050508152505083838151811061087557610874611fbd565b5b60200260200101819052505b808061088c90611fec565b9150506105da565b505b80806108a190611fec565b915050610527565b50809250505090565b60606000805480602002602001604051908101604052809291908181526020016000905b82821015610a9257838290600052602060002090600502016040518060a001604052908160008201548152602001600182015481526020016002820160009054906101000a900473ffffffffffffffffffffffffffffffffffffffff1673ffffffffffffffffffffffffffffffffffffffff1673ffffffffffffffffffffffffffffffffffffffff168152602001600382018054806020026020016040519081016040528092919081815260200182805480156109e857602002820191906000526020600020905b8160009054906101000a900473ffffffffffffffffffffffffffffffffffffffff1673ffffffffffffffffffffffffffffffffffffffff168152602001906001019080831161099e575b50505050508152602001600482018054610a0190612064565b80601f0160208091040260200160405190810160405280929190818152602001828054610a2d90612064565b8015610a7a5780601f10610a4f57610100808354040283529160200191610a7a565b820191906000526020600020905b815481529060010190602001808311610a5d57829003601f168201915b505050505081525050815260200190600101906108d6565b50505050905090565b6060600080549050821115610ae5576040517f08c379a0000000000000000000000000000000000000000000000000000000008152600401610adc906120f3565b60405180910390fd5b3373ffffffffffffffffffffffffffffffffffffffff1660008381548110610b1057610b0f611fbd565b5b906000526020600020906005020160020160009054906101000a900473ffffffffffffffffffffffffffffffffffffffff1673ffffffffffffffffffffffffffffffffffffffff161415610b99576040517f08c379a0000000000000000000000000000000000000000000000000000000008152600401610b909061215f565b60405180910390fd5b610bd76040518060400160405280600d81526020017f436865636b6564206f776e6572000000000000000000000000000000000000008152506116d2565b610c166040518060400160405280601281526020017f436f6e74726163742062616c616e63653a2000000000000000000000000000008152504761159a565b610c556040518060400160405280600b81526020017f6d73672e76616c75653a200000000000000000000000000000000000000000008152503461159a565b610cb96040518060400160405280600c81526020017f66696c652070726963653a20000000000000000000000000000000000000000081525060008481548110610ca257610ca1611fbd565b5b90600052602060002090600502016001015461159a565b60008281548110610ccd57610ccc611fbd565b5b906000526020600020906005020160010154341015610d21576040517f08c379a0000000000000000000000000000000000000000000000000000000008152600401610d18906121cb565b60405180910390fd5b610d5f6040518060400160405280600d81526020017f436865636b65642066756e6473000000000000000000000000000000000000008152506116d2565b6000808381548110610d7457610d73611fbd565b5b906000526020600020906005020160020160009054906101000a900473ffffffffffffffffffffffffffffffffffffffff16905060008173ffffffffffffffffffffffffffffffffffffffff1634604051610dce9061221c565b60006040518083038185875af1925050503d8060008114610e0b576040519150601f19603f3d011682016040523d82523d6000602084013e610e10565b606091505b5050905080610e54576040517f08c379a0000000000000000000000000000000000000000000000000000000008152600401610e4b9061227d565b60405180910390fd5b610e926040518060400160405280600a81526020017f45746865722073656e74000000000000000000000000000000000000000000008152506116d2565b60008481548110610ea657610ea5611fbd565b5b9060005260206000209060050201600301339080600181540180825580915050600190039060005260206000200160009091909190916101000a81548173ffffffffffffffffffffffffffffffffffffffff021916908373ffffffffffffffffffffffffffffffffffffffff160217905550610f566040518060400160405280600b81526020017f41646465642062757965720000000000000000000000000000000000000000008152506116d2565b837f4cdb6e7316f82eb61432dc9e1012e5c90c4222b04c6d39247c20a7c5d3c07e0633604051610f8691906122ac565b60405180910390a26001805480602002602001604051908101604052809291908181526020016000905b8282101561105c578382906000526020600020018054610fcf90612064565b80601f0160208091040260200160405190810160405280929190818152602001828054610ffb90612064565b80156110485780601f1061101d57610100808354040283529160200191611048565b820191906000526020600020905b81548152906001019060200180831161102b57829003601f168201915b505050505081526020019060010190610fb0565b5050505092505050919050565b611071611794565b6000805490508160000181815250508267ffffffffffffffff1681602001818152505033816040019073ffffffffffffffffffffffffffffffffffffffff16908173ffffffffffffffffffffffffffffffffffffffff16815250508381608001819052506000819080600181540180825580915050600190039060005260206000209060050201600090919091909150600082015181600001556020820151816001015560408201518160020160006101000a81548173ffffffffffffffffffffffffffffffffffffffff021916908373ffffffffffffffffffffffffffffffffffffffff16021790555060608201518160030190805190602001906111789291906117d9565b506080820151816004019080519060200190611195929190611863565b5050506001829080600181540180825580915050600190039060005260206000200160009091909190915090805190602001906111d3929190611863565b5080600001517f2fe849cb615f97d808fcd3fcddc557d252e861ea32d9c7455d384de86380ec7a858560405161120a92919061233b565b60405180910390a250505050565b60606000805b6000805490508110156112c6573373ffffffffffffffffffffffffffffffffffffffff166000828154811061125657611255611fbd565b5b906000526020600020906005020160020160009054906101000a900473ffffffffffffffffffffffffffffffffffffffff1673ffffffffffffffffffffffffffffffffffffffff1614156112b35781806112af90611fec565b9250505b80806112be90611fec565b91505061121e565b5060008167ffffffffffffffff8111156112e3576112e2611d64565b5b60405190808252806020026020018201604052801561131c57816020015b611309611794565b8152602001906001900390816113015790505b50905060005b600080549050811015611591573373ffffffffffffffffffffffffffffffffffffffff166000828154811061135a57611359611fbd565b5b906000526020600020906005020160020160009054906101000a900473ffffffffffffffffffffffffffffffffffffffff1673ffffffffffffffffffffffffffffffffffffffff16141561157e57600081815481106113bc576113bb611fbd565b5b90600052602060002090600502016040518060a001604052908160008201548152602001600182015481526020016002820160009054906101000a900473ffffffffffffffffffffffffffffffffffffffff1673ffffffffffffffffffffffffffffffffffffffff1673ffffffffffffffffffffffffffffffffffffffff168152602001600382018054806020026020016040519081016040528092919081815260200182805480156114c457602002820191906000526020600020905b8160009054906101000a900473ffffffffffffffffffffffffffffffffffffffff1673ffffffffffffffffffffffffffffffffffffffff168152602001906001019080831161147a575b505050505081526020016004820180546114dd90612064565b80601f016020809104026020016040519081016040528092919081815260200182805461150990612064565b80156115565780601f1061152b57610100808354040283529160200191611556565b820191906000526020600020905b81548152906001019060200180831161153957829003601f168201915b50505050508152505082828151811061157257611571611fbd565b5b60200260200101819052505b808061158990611fec565b915050611322565b50809250505090565b61163282826040516024016115b092919061237a565b6040516020818303038152906040527f9710a9d0000000000000000000000000000000000000000000000000000000007bffffffffffffffffffffffffffffffffffffffffffffffffffffffff19166020820180517bffffffffffffffffffffffffffffffffffffffffffffffffffffffff838183161783525050505061176b565b5050565b6116ce828260405160240161164c9291906123aa565b6040516020818303038152906040527f319af333000000000000000000000000000000000000000000000000000000007bffffffffffffffffffffffffffffffffffffffffffffffffffffffff19166020820180517bffffffffffffffffffffffffffffffffffffffffffffffffffffffff838183161783525050505061176b565b5050565b611768816040516024016116e691906123da565b6040516020818303038152906040527f41304fac000000000000000000000000000000000000000000000000000000007bffffffffffffffffffffffffffffffffffffffffffffffffffffffff19166020820180517bffffffffffffffffffffffffffffffffffffffffffffffffffffffff838183161783525050505061176b565b50565b60008151905060006a636f6e736f6c652e6c6f679050602083016000808483855afa5050505050565b6040518060a001604052806000815260200160008152602001600073ffffffffffffffffffffffffffffffffffffffff16815260200160608152602001606081525090565b828054828255906000526020600020908101928215611852579160200282015b828111156118515782518260006101000a81548173ffffffffffffffffffffffffffffffffffffffff021916908373ffffffffffffffffffffffffffffffffffffffff160217905550916020019190600101906117f9565b5b50905061185f91906118e9565b5090565b82805461186f90612064565b90600052602060002090601f01602090048101928261189157600085556118d8565b82601f106118aa57805160ff19168380011785556118d8565b828001600101855582156118d8579182015b828111156118d75782518255916020019190600101906118bc565b5b5090506118e591906118e9565b5090565b5b808211156119025760008160009055506001016118ea565b5090565b600081519050919050565b600082825260208201905092915050565b6000819050602082019050919050565b6000819050919050565b61194581611932565b82525050565b600073ffffffffffffffffffffffffffffffffffffffff82169050919050565b60006119768261194b565b9050919050565b6119868161196b565b82525050565b600081519050919050565b600082825260208201905092915050565b6000819050602082019050919050565b60006119c4838361197d565b60208301905092915050565b6000602082019050919050565b60006119e88261198c565b6119f28185611997565b93506119fd836119a8565b8060005b83811015611a2e578151611a1588826119b8565b9750611a20836119d0565b925050600181019050611a01565b5085935050505092915050565b600081519050919050565b600082825260208201905092915050565b60005b83811015611a75578082015181840152602081019050611a5a565b83811115611a84576000848401525b50505050565b6000601f19601f8301169050919050565b6000611aa682611a3b565b611ab08185611a46565b9350611ac0818560208601611a57565b611ac981611a8a565b840191505092915050565b600060a083016000830151611aec600086018261193c565b506020830151611aff602086018261193c565b506040830151611b12604086018261197d565b5060608301518482036060860152611b2a82826119dd565b91505060808301518482036080860152611b448282611a9b565b9150508091505092915050565b6000611b5d8383611ad4565b905092915050565b6000602082019050919050565b6000611b7d82611906565b611b878185611911565b935083602082028501611b9985611922565b8060005b85811015611bd55784840389528151611bb68582611b51565b9450611bc183611b65565b925060208a01995050600181019050611b9d565b50829750879550505050505092915050565b60006020820190508181036000830152611c018184611b72565b905092915050565b6000604051905090565b600080fd5b600080fd5b611c2681611932565b8114611c3157600080fd5b50565b600081359050611c4381611c1d565b92915050565b600060208284031215611c5f57611c5e611c13565b5b6000611c6d84828501611c34565b91505092915050565b600081519050919050565b600082825260208201905092915050565b6000819050602082019050919050565b6000611cae8383611a9b565b905092915050565b6000602082019050919050565b6000611cce82611c76565b611cd88185611c81565b935083602082028501611cea85611c92565b8060005b85811015611d265784840389528151611d078582611ca2565b9450611d1283611cb6565b925060208a01995050600181019050611cee565b50829750879550505050505092915050565b60006020820190508181036000830152611d528184611cc3565b905092915050565b600080fd5b600080fd5b7f4e487b7100000000000000000000000000000000000000000000000000000000600052604160045260246000fd5b611d9c82611a8a565b810181811067ffffffffffffffff82111715611dbb57611dba611d64565b5b80604052505050565b6000611dce611c09565b9050611dda8282611d93565b919050565b600067ffffffffffffffff821115611dfa57611df9611d64565b5b611e0382611a8a565b9050602081019050919050565b82818337600083830152505050565b6000611e32611e2d84611ddf565b611dc4565b905082815260208101848484011115611e4e57611e4d611d5f565b5b611e59848285611e10565b509392505050565b600082601f830112611e7657611e75611d5a565b5b8135611e86848260208601611e1f565b91505092915050565b600067ffffffffffffffff82169050919050565b611eac81611e8f565b8114611eb757600080fd5b50565b600081359050611ec981611ea3565b92915050565b600080600060608486031215611ee857611ee7611c13565b5b600084013567ffffffffffffffff811115611f0657611f05611c18565b5b611f1286828701611e61565b9350506020611f2386828701611eba565b925050604084013567ffffffffffffffff811115611f4457611f43611c18565b5b611f5086828701611e61565b9150509250925092565b7f4e487b7100000000000000000000000000000000000000000000000000000000600052601160045260246000fd5b6000611f9482611932565b9150611f9f83611932565b925082821015611fb257611fb1611f5a565b5b828203905092915050565b7f4e487b7100000000000000000000000000000000000000000000000000000000600052603260045260246000fd5b6000611ff782611932565b91507fffffffffffffffffffffffffffffffffffffffffffffffffffffffffffffffff82141561202a57612029611f5a565b5b600182019050919050565b7f4e487b7100000000000000000000000000000000000000000000000000000000600052602260045260246000fd5b6000600282049050600182168061207c57607f821691505b602082108114156120905761208f612035565b5b50919050565b600082825260208201905092915050565b7f5468652066696c6520646f6573206e6f74206578697374730000000000000000600082015250565b60006120dd601883612096565b91506120e8826120a7565b602082019050919050565b6000602082019050818103600083015261210c816120d0565b9050919050565b7f596f752061726520746865206f776e6572206f6620746869732066696c650000600082015250565b6000612149601e83612096565b915061215482612113565b602082019050919050565b600060208201905081810360008301526121788161213c565b9050919050565b7f4e6f7420656e6f7567682066756e647300000000000000000000000000000000600082015250565b60006121b5601083612096565b91506121c08261217f565b602082019050919050565b600060208201905081810360008301526121e4816121a8565b9050919050565b600081905092915050565b50565b60006122066000836121eb565b9150612211826121f6565b600082019050919050565b6000612227826121f9565b9150819050919050565b7f4661696c656420746f2073656e64204574686572000000000000000000000000600082015250565b6000612267601483612096565b915061227282612231565b602082019050919050565b600060208201905081810360008301526122968161225a565b9050919050565b6122a68161196b565b82525050565b60006020820190506122c1600083018461229d565b92915050565b60006122d282611a3b565b6122dc8185612096565b93506122ec818560208601611a57565b6122f581611a8a565b840191505092915050565b6000819050919050565b600061232561232061231b84611e8f565b612300565b611932565b9050919050565b6123358161230a565b82525050565b6000604082019050818103600083015261235581856122c7565b9050612364602083018461232c565b9392505050565b61237481611932565b82525050565b6000604082019050818103600083015261239481856122c7565b90506123a3602083018461236b565b9392505050565b600060408201905081810360008301526123c481856122c7565b90506123d3602083018461229d565b9392505050565b600060208201905081810360008301526123f481846122c7565b90509291505056fea26469706673582212204d76b0b512c82f48e2e5e2c601bbe73961daf3d57b0881cbddce7c2a2084532664736f6c63430008090033",
  "linkReferences": {},
  "deployedLinkReferences": {}
}